{
  "_format": "hh-sol-artifact-1",
  "contractName": "NFTMarketplace",
  "sourceName": "contracts/NFTMarketplace.sol",
  "abi": [
    {
      "inputs": [],
      "stateMutability": "nonpayable",
      "type": "constructor"
    },
    {
      "inputs": [],
      "name": "NFTMarketplace__ItemPriceIsLessThenZero",
      "type": "error"
    },
    {
      "inputs": [],
      "name": "NFTMarketplace__ItemPriceNotMet",
      "type": "error"
    },
    {
      "inputs": [],
      "name": "NFTMarketplace__YouAreNotOwnerOfThisItem",
      "type": "error"
    },
    {
      "anonymous": false,
      "inputs": [
        {
          "indexed": true,
          "internalType": "address",
          "name": "nftAddress",
          "type": "address"
        },
        {
          "indexed": true,
          "internalType": "uint256",
          "name": "tokenId",
          "type": "uint256"
        },
        {
          "indexed": false,
          "internalType": "address",
          "name": "seller",
          "type": "address"
        },
        {
          "indexed": false,
          "internalType": "address",
          "name": "owner",
          "type": "address"
        },
        {
          "indexed": false,
          "internalType": "uint256",
          "name": "price",
          "type": "uint256"
        },
        {
          "indexed": false,
          "internalType": "bool",
          "name": "sold",
          "type": "bool"
        }
      ],
      "name": "ItemBought",
      "type": "event"
    },
    {
      "anonymous": false,
      "inputs": [
        {
          "indexed": true,
          "internalType": "uint256",
          "name": "itemId",
          "type": "uint256"
        },
        {
          "indexed": true,
          "internalType": "address",
          "name": "nftAddress",
          "type": "address"
        },
        {
          "indexed": true,
          "internalType": "uint256",
          "name": "tokenId",
          "type": "uint256"
        },
        {
          "indexed": false,
          "internalType": "address",
          "name": "seller",
          "type": "address"
        },
        {
          "indexed": false,
          "internalType": "address",
          "name": "owner",
          "type": "address"
        },
        {
          "indexed": false,
          "internalType": "uint256",
          "name": "price",
          "type": "uint256"
        },
        {
          "indexed": false,
          "internalType": "bool",
          "name": "sold",
          "type": "bool"
        }
      ],
      "name": "ItemList",
      "type": "event"
    },
    {
      "anonymous": false,
      "inputs": [
        {
          "indexed": true,
          "internalType": "address",
          "name": "nftAddress",
          "type": "address"
        },
        {
          "indexed": true,
          "internalType": "uint256",
          "name": "tokenId",
          "type": "uint256"
        },
        {
          "indexed": false,
          "internalType": "address",
          "name": "seller",
          "type": "address"
        }
      ],
      "name": "ListingCanceled",
      "type": "event"
    },
    {
      "anonymous": false,
      "inputs": [
        {
          "indexed": true,
          "internalType": "address",
          "name": "newOwner",
          "type": "address"
        }
      ],
      "name": "OwnershipTransferred",
      "type": "event"
    },
    {
      "anonymous": false,
      "inputs": [
        {
          "indexed": true,
          "internalType": "address",
          "name": "previousOwner",
          "type": "address"
        },
        {
          "indexed": true,
          "internalType": "address",
          "name": "newOwner",
          "type": "address"
        }
      ],
      "name": "OwnershipTransferred",
      "type": "event"
    },
    {
      "inputs": [
        {
          "internalType": "address",
          "name": "_nftAddress",
          "type": "address"
        },
        {
          "internalType": "uint256",
          "name": "_itemId",
          "type": "uint256"
        }
      ],
      "name": "buyItem",
      "outputs": [],
      "stateMutability": "payable",
      "type": "function"
    },
    {
      "inputs": [
        {
          "internalType": "uint256",
          "name": "_itemId",
          "type": "uint256"
        },
        {
          "internalType": "uint256",
          "name": "_tokenId",
          "type": "uint256"
        },
        {
          "internalType": "address",
          "name": "_nftAddress",
          "type": "address"
        }
      ],
      "name": "cancelListing",
      "outputs": [],
      "stateMutability": "payable",
      "type": "function"
    },
    {
      "inputs": [],
      "name": "getAllListedItems",
      "outputs": [
        {
          "components": [
            {
              "internalType": "uint256",
              "name": "itemId",
              "type": "uint256"
            },
            {
              "internalType": "address",
              "name": "nftContract",
              "type": "address"
            },
            {
              "internalType": "uint256",
              "name": "tokenId",
              "type": "uint256"
            },
            {
              "internalType": "address payable",
              "name": "seller",
              "type": "address"
            },
            {
              "internalType": "address payable",
              "name": "owner",
              "type": "address"
            },
            {
              "internalType": "uint256",
              "name": "price",
              "type": "uint256"
            },
            {
              "internalType": "bool",
              "name": "sold",
              "type": "bool"
            }
          ],
          "internalType": "struct NFTMarketplace.Item[]",
          "name": "",
          "type": "tuple[]"
        }
      ],
      "stateMutability": "view",
      "type": "function"
    },
    {
      "inputs": [],
      "name": "getListingPrice",
      "outputs": [
        {
          "internalType": "uint256",
          "name": "",
          "type": "uint256"
        }
      ],
      "stateMutability": "view",
      "type": "function"
    },
    {
      "inputs": [],
      "name": "getOwnerListedItems",
      "outputs": [
        {
          "components": [
            {
              "internalType": "uint256",
              "name": "itemId",
              "type": "uint256"
            },
            {
              "internalType": "address",
              "name": "nftContract",
              "type": "address"
            },
            {
              "internalType": "uint256",
              "name": "tokenId",
              "type": "uint256"
            },
            {
              "internalType": "address payable",
              "name": "seller",
              "type": "address"
            },
            {
              "internalType": "address payable",
              "name": "owner",
              "type": "address"
            },
            {
              "internalType": "uint256",
              "name": "price",
              "type": "uint256"
            },
            {
              "internalType": "bool",
              "name": "sold",
              "type": "bool"
            }
          ],
          "internalType": "struct NFTMarketplace.Item[]",
          "name": "",
          "type": "tuple[]"
        }
      ],
      "stateMutability": "view",
      "type": "function"
    },
    {
      "inputs": [
        {
          "internalType": "uint256",
          "name": "_itemId",
          "type": "uint256"
        }
      ],
      "name": "getPerticularItem",
      "outputs": [
        {
          "components": [
            {
              "internalType": "uint256",
              "name": "itemId",
              "type": "uint256"
            },
            {
              "internalType": "address",
              "name": "nftContract",
              "type": "address"
            },
            {
              "internalType": "uint256",
              "name": "tokenId",
              "type": "uint256"
            },
            {
              "internalType": "address payable",
              "name": "seller",
              "type": "address"
            },
            {
              "internalType": "address payable",
              "name": "owner",
              "type": "address"
            },
            {
              "internalType": "uint256",
              "name": "price",
              "type": "uint256"
            },
            {
              "internalType": "bool",
              "name": "sold",
              "type": "bool"
            }
          ],
          "internalType": "struct NFTMarketplace.Item",
          "name": "",
          "type": "tuple"
        }
      ],
      "stateMutability": "view",
      "type": "function"
    },
    {
      "inputs": [],
      "name": "getSellerListedItems",
      "outputs": [
        {
          "components": [
            {
              "internalType": "uint256",
              "name": "itemId",
              "type": "uint256"
            },
            {
              "internalType": "address",
              "name": "nftContract",
              "type": "address"
            },
            {
              "internalType": "uint256",
              "name": "tokenId",
              "type": "uint256"
            },
            {
              "internalType": "address payable",
              "name": "seller",
              "type": "address"
            },
            {
              "internalType": "address payable",
              "name": "owner",
              "type": "address"
            },
            {
              "internalType": "uint256",
              "name": "price",
              "type": "uint256"
            },
            {
              "internalType": "bool",
              "name": "sold",
              "type": "bool"
            }
          ],
          "internalType": "struct NFTMarketplace.Item[]",
          "name": "",
          "type": "tuple[]"
        }
      ],
      "stateMutability": "view",
      "type": "function"
    },
    {
      "inputs": [
        {
          "internalType": "address",
          "name": "_nftAddress",
          "type": "address"
        },
        {
          "internalType": "uint256",
          "name": "_tokenId",
          "type": "uint256"
        },
        {
          "internalType": "uint256",
          "name": "_price",
          "type": "uint256"
        }
      ],
      "name": "listItem",
      "outputs": [],
      "stateMutability": "payable",
      "type": "function"
    },
    {
      "inputs": [
        {
          "internalType": "address",
          "name": "",
          "type": "address"
        },
        {
          "internalType": "uint256",
          "name": "",
          "type": "uint256"
        }
      ],
      "name": "listings",
      "outputs": [
        {
          "internalType": "uint256",
          "name": "price",
          "type": "uint256"
        },
        {
          "internalType": "address",
          "name": "seller",
          "type": "address"
        }
      ],
      "stateMutability": "view",
      "type": "function"
    },
    {
      "inputs": [],
      "name": "owner",
      "outputs": [
        {
          "internalType": "address",
          "name": "",
          "type": "address"
        }
      ],
      "stateMutability": "view",
      "type": "function"
    },
    {
      "inputs": [],
      "name": "renounceOwnership",
      "outputs": [],
      "stateMutability": "nonpayable",
      "type": "function"
    },
    {
      "inputs": [
        {
          "internalType": "address",
          "name": "_nftAddress",
          "type": "address"
        },
        {
          "internalType": "uint256",
          "name": "_tokenId",
          "type": "uint256"
        },
        {
          "internalType": "uint256",
          "name": "_price",
          "type": "uint256"
        }
      ],
      "name": "resellItem",
      "outputs": [],
      "stateMutability": "payable",
      "type": "function"
    },
    {
      "inputs": [
        {
          "internalType": "address",
          "name": "newOwner",
          "type": "address"
        }
      ],
      "name": "transferContractOwnership",
      "outputs": [],
      "stateMutability": "nonpayable",
      "type": "function"
    },
    {
      "inputs": [
        {
          "internalType": "address",
          "name": "newOwner",
          "type": "address"
        }
      ],
      "name": "transferOwnership",
      "outputs": [],
      "stateMutability": "nonpayable",
      "type": "function"
    },
    {
      "inputs": [
        {
          "internalType": "uint256",
          "name": "_itemId",
          "type": "uint256"
        },
        {
          "internalType": "uint256",
          "name": "_price",
          "type": "uint256"
        }
      ],
      "name": "updateItemPrice",
      "outputs": [],
      "stateMutability": "nonpayable",
      "type": "function"
    },
    {
      "inputs": [],
      "name": "withdrawMoney",
      "outputs": [],
      "stateMutability": "nonpayable",
      "type": "function"
    }
  ],
  "bytecode": "0x60806040526658d15e176280006005553480156200001c57600080fd5b50600160008190555062000045620000396200008c60201b60201c565b6200009460201b60201c565b33600460006101000a81548173ffffffffffffffffffffffffffffffffffffffff021916908373ffffffffffffffffffffffffffffffffffffffff1602179055506200015a565b600033905090565b6000600160009054906101000a900473ffffffffffffffffffffffffffffffffffffffff16905081600160006101000a81548173ffffffffffffffffffffffffffffffffffffffff021916908373ffffffffffffffffffffffffffffffffffffffff1602179055508173ffffffffffffffffffffffffffffffffffffffff168173ffffffffffffffffffffffffffffffffffffffff167f8be0079c531659141344cd1fd0a4f28419497f9722a3daafe3b4186f6b6457e060405160405180910390a35050565b61299a806200016a6000396000f3fe6080604052600436106100f25760003560e01c80638da5cb5b1161008a578063ac44600211610059578063ac446002146102db578063d9afd9de146102f2578063f2fde38b1461030e578063f9319c5314610337576100f2565b80638da5cb5b1461024f5780638f0af0f91461027a5780639f37092a14610296578063a843c51f146102b2576100f2565b80633b1b1ad0116100c65780633b1b1ad0146101c65780634d757a1c146101f1578063715018a61461021c57806389bfd38f14610233576100f2565b806207df30146100f757806306a5f5a31461013557806312e85585146101725780632769b96b1461019d575b600080fd5b34801561010357600080fd5b5061011e60048036038101906101199190611ff3565b610362565b60405161012c9291906125c2565b60405180910390f35b34801561014157600080fd5b5061015c60048036038101906101579190612086565b6103b3565b604051610169919061258c565b60405180910390f35b34801561017e57600080fd5b5061018761051b565b60405161019491906125a7565b60405180910390f35b3480156101a957600080fd5b506101c460048036038101906101bf91906120b3565b610525565b005b3480156101d257600080fd5b506101db6106ab565b6040516101e891906124aa565b60405180910390f35b3480156101fd57600080fd5b5061020661098b565b60405161021391906124aa565b60405180910390f35b34801561022857600080fd5b50610231610cef565b005b61024d60048036038101906102489190612033565b610d03565b005b34801561025b57600080fd5b50610264611019565b6040516102719190612413565b60405180910390f35b610294600480360381019061028f9190612033565b611043565b005b6102b060048036038101906102ab9190611ff3565b61131d565b005b3480156102be57600080fd5b506102d960048036038101906102d49190611fc6565b611676565b005b3480156102e757600080fd5b506102f06116fa565b005b61030c600480360381019061030791906120f3565b611761565b005b34801561031a57600080fd5b5061033560048036038101906103309190611fc6565b61190d565b005b34801561034357600080fd5b5061034c611991565b60405161035991906124aa565b60405180910390f35b6007602052816000526040600020602052806000526040600020600091509150508060000154908060010160009054906101000a900473ffffffffffffffffffffffffffffffffffffffff16905082565b6103bb611f1b565b600660008381526020019081526020016000206040518060e0016040529081600082015481526020016001820160009054906101000a900473ffffffffffffffffffffffffffffffffffffffff1673ffffffffffffffffffffffffffffffffffffffff1673ffffffffffffffffffffffffffffffffffffffff168152602001600282015481526020016003820160009054906101000a900473ffffffffffffffffffffffffffffffffffffffff1673ffffffffffffffffffffffffffffffffffffffff1673ffffffffffffffffffffffffffffffffffffffff1681526020016004820160009054906101000a900473ffffffffffffffffffffffffffffffffffffffff1673ffffffffffffffffffffffffffffffffffffffff1673ffffffffffffffffffffffffffffffffffffffff168152602001600582015481526020016006820160009054906101000a900460ff1615151515815250509050919050565b6000600554905090565b600073ffffffffffffffffffffffffffffffffffffffff16600460009054906101000a900473ffffffffffffffffffffffffffffffffffffffff1673ffffffffffffffffffffffffffffffffffffffff1614156105b7576040517f08c379a00000000000000000000000000000000000000000000000000000000081526004016105ae9061254c565b60405180910390fd5b6006600083815260200190815260200160002060030160009054906101000a900473ffffffffffffffffffffffffffffffffffffffff1673ffffffffffffffffffffffffffffffffffffffff163373ffffffffffffffffffffffffffffffffffffffff1614610652576040517f84bdb6f900000000000000000000000000000000000000000000000000000000815260040160405180910390fd5b6000811161068c576040517f10b00be800000000000000000000000000000000000000000000000000000000815260040160405180910390fd5b8060066000848152602001908152602001600020600501819055505050565b606060006106b96002611cf5565b905060006106c76003611cf5565b6106d16002611cf5565b6106db919061268b565b90506000808267ffffffffffffffff8111156106fa576106f96127c0565b5b60405190808252806020026020018201604052801561073357816020015b610720611f1b565b8152602001906001900390816107185790505b50905060005b8481101561098057600073ffffffffffffffffffffffffffffffffffffffff166006600060018461076a9190612635565b815260200190815260200160002060040160009054906101000a900473ffffffffffffffffffffffffffffffffffffffff1673ffffffffffffffffffffffffffffffffffffffff16141561096d576000600660006001846107cb9190612635565b81526020019081526020016000206000015490506000600660008381526020019081526020016000209050806040518060e0016040529081600082015481526020016001820160009054906101000a900473ffffffffffffffffffffffffffffffffffffffff1673ffffffffffffffffffffffffffffffffffffffff1673ffffffffffffffffffffffffffffffffffffffff168152602001600282015481526020016003820160009054906101000a900473ffffffffffffffffffffffffffffffffffffffff1673ffffffffffffffffffffffffffffffffffffffff1673ffffffffffffffffffffffffffffffffffffffff1681526020016004820160009054906101000a900473ffffffffffffffffffffffffffffffffffffffff1673ffffffffffffffffffffffffffffffffffffffff1673ffffffffffffffffffffffffffffffffffffffff168152602001600582015481526020016006820160009054906101000a900460ff1615151515815250508486815181106109505761094f612791565b5b60200260200101819052506001856109689190612635565b945050505b808061097890612719565b915050610739565b508094505050505090565b606060006109996002611cf5565b905060008060005b83811015610a42573373ffffffffffffffffffffffffffffffffffffffff16600660006001846109d19190612635565b815260200190815260200160002060040160009054906101000a900473ffffffffffffffffffffffffffffffffffffffff1673ffffffffffffffffffffffffffffffffffffffff161415610a2f57600183610a2c9190612635565b92505b8080610a3a90612719565b9150506109a1565b5060008267ffffffffffffffff811115610a5f57610a5e6127c0565b5b604051908082528060200260200182016040528015610a9857816020015b610a85611f1b565b815260200190600190039081610a7d5790505b50905060005b84811015610ce4573373ffffffffffffffffffffffffffffffffffffffff1660066000600184610ace9190612635565b815260200190815260200160002060040160009054906101000a900473ffffffffffffffffffffffffffffffffffffffff1673ffffffffffffffffffffffffffffffffffffffff161415610cd157600060066000600184610b2f9190612635565b81526020019081526020016000206000015490506000600660008381526020019081526020016000209050806040518060e0016040529081600082015481526020016001820160009054906101000a900473ffffffffffffffffffffffffffffffffffffffff1673ffffffffffffffffffffffffffffffffffffffff1673ffffffffffffffffffffffffffffffffffffffff168152602001600282015481526020016003820160009054906101000a900473ffffffffffffffffffffffffffffffffffffffff1673ffffffffffffffffffffffffffffffffffffffff1673ffffffffffffffffffffffffffffffffffffffff1681526020016004820160009054906101000a900473ffffffffffffffffffffffffffffffffffffffff1673ffffffffffffffffffffffffffffffffffffffff1673ffffffffffffffffffffffffffffffffffffffff168152602001600582015481526020016006820160009054906101000a900460ff161515151581525050848681518110610cb457610cb3612791565b5b6020026020010181905250600185610ccc9190612635565b945050505b8080610cdc90612719565b915050610a9e565b508094505050505090565b610cf7611d03565b610d016000611d81565b565b610d0b611e47565b6005543414610d4f576040517f08c379a0000000000000000000000000000000000000000000000000000000008152600401610d469061250c565b60405180910390fd5b6000811015610d8a576040517f10b00be800000000000000000000000000000000000000000000000000000000815260040160405180910390fd5b610d946002611e97565b6000610da06002611cf5565b90506040518060e001604052808281526020018573ffffffffffffffffffffffffffffffffffffffff1681526020018481526020013373ffffffffffffffffffffffffffffffffffffffff168152602001600073ffffffffffffffffffffffffffffffffffffffff16815260200183815260200160001515815250600660008381526020019081526020016000206000820151816000015560208201518160010160006101000a81548173ffffffffffffffffffffffffffffffffffffffff021916908373ffffffffffffffffffffffffffffffffffffffff1602179055506040820151816002015560608201518160030160006101000a81548173ffffffffffffffffffffffffffffffffffffffff021916908373ffffffffffffffffffffffffffffffffffffffff16021790555060808201518160040160006101000a81548173ffffffffffffffffffffffffffffffffffffffff021916908373ffffffffffffffffffffffffffffffffffffffff16021790555060a0820151816005015560c08201518160060160006101000a81548160ff0219169083151502179055509050508373ffffffffffffffffffffffffffffffffffffffff166323b872dd3330866040518463ffffffff1660e01b8152600401610f819392919061242e565b600060405180830381600087803b158015610f9b57600080fd5b505af1158015610faf573d6000803e3d6000fd5b50505050828473ffffffffffffffffffffffffffffffffffffffff16827ff8551f8be25732324fcda411a126b3c851e038b0ff8d097a3951dded3772f43f3360008760006040516110039493929190612465565b60405180910390a450611014611ead565b505050565b6000600160009054906101000a900473ffffffffffffffffffffffffffffffffffffffff16905090565b600073ffffffffffffffffffffffffffffffffffffffff16600460009054906101000a900473ffffffffffffffffffffffffffffffffffffffff1673ffffffffffffffffffffffffffffffffffffffff1614156110d5576040517f08c379a00000000000000000000000000000000000000000000000000000000081526004016110cc9061254c565b60405180910390fd5b3373ffffffffffffffffffffffffffffffffffffffff166006600084815260200190815260200160002060040160009054906101000a900473ffffffffffffffffffffffffffffffffffffffff1673ffffffffffffffffffffffffffffffffffffffff1614611170576040517f84bdb6f900000000000000000000000000000000000000000000000000000000815260040160405180910390fd5b60055434146111ab576040517f972a58a100000000000000000000000000000000000000000000000000000000815260040160405180910390fd5b60006006600084815260200190815260200160002060060160006101000a81548160ff021916908315150217905550806006600084815260200190815260200160002060050181905550336006600084815260200190815260200160002060030160006101000a81548173ffffffffffffffffffffffffffffffffffffffff021916908373ffffffffffffffffffffffffffffffffffffffff160217905550306006600084815260200190815260200160002060040160006101000a81548173ffffffffffffffffffffffffffffffffffffffff021916908373ffffffffffffffffffffffffffffffffffffffff1602179055506112a96003611eb7565b8273ffffffffffffffffffffffffffffffffffffffff166323b872dd3330856040518463ffffffff1660e01b81526004016112e69392919061242e565b600060405180830381600087803b15801561130057600080fd5b505af1158015611314573d6000803e3d6000fd5b50505050505050565b611325611e47565b60006006600083815260200190815260200160002060050154905060006006600084815260200190815260200160002060020154905060006006600085815260200190815260200160002060030160009054906101000a900473ffffffffffffffffffffffffffffffffffffffff1690508234146113cf576040517f972a58a100000000000000000000000000000000000000000000000000000000815260040160405180910390fd5b600073ffffffffffffffffffffffffffffffffffffffff16600460009054906101000a900473ffffffffffffffffffffffffffffffffffffffff1673ffffffffffffffffffffffffffffffffffffffff161415611461576040517f08c379a00000000000000000000000000000000000000000000000000000000081526004016114589061254c565b60405180910390fd5b8073ffffffffffffffffffffffffffffffffffffffff166108fc349081150290604051600060405180830381858888f193505050501580156114a7573d6000803e3d6000fd5b508473ffffffffffffffffffffffffffffffffffffffff166323b872dd3033856040518463ffffffff1660e01b81526004016114e59392919061242e565b600060405180830381600087803b1580156114ff57600080fd5b505af1158015611513573d6000803e3d6000fd5b50505050336006600086815260200190815260200160002060040160006101000a81548173ffffffffffffffffffffffffffffffffffffffff021916908373ffffffffffffffffffffffffffffffffffffffff16021790555060016006600086815260200190815260200160002060060160006101000a81548160ff0219169083151502179055506115a56003611e97565b818573ffffffffffffffffffffffffffffffffffffffff167f9a9f9faf9d964b2fb1888cdf05202baf5a1b99d45f7afd6a5e062ac544b3c1506000338760016040516115f49493929190612465565b60405180910390a3600460009054906101000a900473ffffffffffffffffffffffffffffffffffffffff1673ffffffffffffffffffffffffffffffffffffffff166108fc6005549081150290604051600060405180830381858888f19350505050158015611666573d6000803e3d6000fd5b50505050611672611ead565b5050565b61167e611d03565b600073ffffffffffffffffffffffffffffffffffffffff168173ffffffffffffffffffffffffffffffffffffffff1614156116ee576040517f08c379a00000000000000000000000000000000000000000000000000000000081526004016116e5906124ec565b60405180910390fd5b6116f781611d81565b50565b611702611d03565b61170a611e47565b60003390508073ffffffffffffffffffffffffffffffffffffffff166108fc479081150290604051600060405180830381858888f19350505050158015611755573d6000803e3d6000fd5b505061175f611ead565b565b6006600084815260200190815260200160002060030160009054906101000a900473ffffffffffffffffffffffffffffffffffffffff1673ffffffffffffffffffffffffffffffffffffffff163373ffffffffffffffffffffffffffffffffffffffff16146117fc576040517f84bdb6f900000000000000000000000000000000000000000000000000000000815260040160405180910390fd5b6005543414611837576040517f972a58a100000000000000000000000000000000000000000000000000000000815260040160405180910390fd5b600760008273ffffffffffffffffffffffffffffffffffffffff1673ffffffffffffffffffffffffffffffffffffffff16815260200190815260200160002060008381526020019081526020016000206000808201600090556001820160006101000a81549073ffffffffffffffffffffffffffffffffffffffff02191690555050818173ffffffffffffffffffffffffffffffffffffffff167fcf45896873f759e6a8c2348e49ff9892b89458850ab6c70339e1c430227ce91d336040516119009190612413565b60405180910390a3505050565b611915611d03565b600073ffffffffffffffffffffffffffffffffffffffff168173ffffffffffffffffffffffffffffffffffffffff161415611985576040517f08c379a000000000000000000000000000000000000000000000000000000000815260040161197c906124ec565b60405180910390fd5b61198e81611d81565b50565b6060600061199f6002611cf5565b905060008060005b83811015611a48573373ffffffffffffffffffffffffffffffffffffffff16600660006001846119d79190612635565b815260200190815260200160002060030160009054906101000a900473ffffffffffffffffffffffffffffffffffffffff1673ffffffffffffffffffffffffffffffffffffffff161415611a3557600183611a329190612635565b92505b8080611a4090612719565b9150506119a7565b5060008267ffffffffffffffff811115611a6557611a646127c0565b5b604051908082528060200260200182016040528015611a9e57816020015b611a8b611f1b565b815260200190600190039081611a835790505b50905060005b84811015611cea573373ffffffffffffffffffffffffffffffffffffffff1660066000600184611ad49190612635565b815260200190815260200160002060030160009054906101000a900473ffffffffffffffffffffffffffffffffffffffff1673ffffffffffffffffffffffffffffffffffffffff161415611cd757600060066000600184611b359190612635565b81526020019081526020016000206000015490506000600660008381526020019081526020016000209050806040518060e0016040529081600082015481526020016001820160009054906101000a900473ffffffffffffffffffffffffffffffffffffffff1673ffffffffffffffffffffffffffffffffffffffff1673ffffffffffffffffffffffffffffffffffffffff168152602001600282015481526020016003820160009054906101000a900473ffffffffffffffffffffffffffffffffffffffff1673ffffffffffffffffffffffffffffffffffffffff1673ffffffffffffffffffffffffffffffffffffffff1681526020016004820160009054906101000a900473ffffffffffffffffffffffffffffffffffffffff1673ffffffffffffffffffffffffffffffffffffffff1673ffffffffffffffffffffffffffffffffffffffff168152602001600582015481526020016006820160009054906101000a900460ff161515151581525050848681518110611cba57611cb9612791565b5b6020026020010181905250600185611cd29190612635565b945050505b8080611ce290612719565b915050611aa4565b508094505050505090565b600081600001549050919050565b611d0b611f13565b73ffffffffffffffffffffffffffffffffffffffff16611d29611019565b73ffffffffffffffffffffffffffffffffffffffff1614611d7f576040517f08c379a0000000000000000000000000000000000000000000000000000000008152600401611d769061252c565b60405180910390fd5b565b6000600160009054906101000a900473ffffffffffffffffffffffffffffffffffffffff16905081600160006101000a81548173ffffffffffffffffffffffffffffffffffffffff021916908373ffffffffffffffffffffffffffffffffffffffff1602179055508173ffffffffffffffffffffffffffffffffffffffff168173ffffffffffffffffffffffffffffffffffffffff167f8be0079c531659141344cd1fd0a4f28419497f9722a3daafe3b4186f6b6457e060405160405180910390a35050565b60026000541415611e8d576040517f08c379a0000000000000000000000000000000000000000000000000000000008152600401611e849061256c565b60405180910390fd5b6002600081905550565b6001816000016000828254019250508190555050565b6001600081905550565b60008160000154905060008111611f03576040517f08c379a0000000000000000000000000000000000000000000000000000000008152600401611efa906124cc565b60405180910390fd5b6001810382600001819055505050565b600033905090565b6040518060e0016040528060008152602001600073ffffffffffffffffffffffffffffffffffffffff16815260200160008152602001600073ffffffffffffffffffffffffffffffffffffffff168152602001600073ffffffffffffffffffffffffffffffffffffffff168152602001600081526020016000151581525090565b600081359050611fab81612936565b92915050565b600081359050611fc08161294d565b92915050565b600060208284031215611fdc57611fdb6127ef565b5b6000611fea84828501611f9c565b91505092915050565b6000806040838503121561200a576120096127ef565b5b600061201885828601611f9c565b925050602061202985828601611fb1565b9150509250929050565b60008060006060848603121561204c5761204b6127ef565b5b600061205a86828701611f9c565b935050602061206b86828701611fb1565b925050604061207c86828701611fb1565b9150509250925092565b60006020828403121561209c5761209b6127ef565b5b60006120aa84828501611fb1565b91505092915050565b600080604083850312156120ca576120c96127ef565b5b60006120d885828601611fb1565b92505060206120e985828601611fb1565b9150509250929050565b60008060006060848603121561210c5761210b6127ef565b5b600061211a86828701611fb1565b935050602061212b86828701611fb1565b925050604061213c86828701611f9c565b9150509250925092565b600061215283836122d9565b60e08301905092915050565b612167816126d1565b82525050565b612176816126bf565b82525050565b612185816126bf565b82525050565b6000612196826125fb565b6121a08185612613565b93506121ab836125eb565b8060005b838110156121dc5781516121c38882612146565b97506121ce83612606565b9250506001810190506121af565b5085935050505092915050565b6121f2816126e3565b82525050565b612201816126e3565b82525050565b6000612214601b83612624565b915061221f826127f4565b602082019050919050565b6000612237602683612624565b91506122428261281d565b604082019050919050565b600061225a604083612624565b91506122658261286c565b604082019050919050565b600061227d602083612624565b9150612288826128bb565b602082019050919050565b60006122a0600f83612624565b91506122ab826128e4565b602082019050919050565b60006122c3601f83612624565b91506122ce8261290d565b602082019050919050565b60e0820160008201516122ef60008501826123f5565b506020820151612302602085018261216d565b50604082015161231560408501826123f5565b506060820151612328606085018261215e565b50608082015161233b608085018261215e565b5060a082015161234e60a08501826123f5565b5060c082015161236160c08501826121e9565b50505050565b60e08201600082015161237d60008501826123f5565b506020820151612390602085018261216d565b5060408201516123a360408501826123f5565b5060608201516123b6606085018261215e565b5060808201516123c9608085018261215e565b5060a08201516123dc60a08501826123f5565b5060c08201516123ef60c08501826121e9565b50505050565b6123fe8161270f565b82525050565b61240d8161270f565b82525050565b6000602082019050612428600083018461217c565b92915050565b6000606082019050612443600083018661217c565b612450602083018561217c565b61245d6040830184612404565b949350505050565b600060808201905061247a600083018761217c565b612487602083018661217c565b6124946040830185612404565b6124a160608301846121f8565b95945050505050565b600060208201905081810360008301526124c4818461218b565b905092915050565b600060208201905081810360008301526124e581612207565b9050919050565b600060208201905081810360008301526125058161222a565b9050919050565b600060208201905081810360008301526125258161224d565b9050919050565b6000602082019050818103600083015261254581612270565b9050919050565b6000602082019050818103600083015261256581612293565b9050919050565b60006020820190508181036000830152612585816122b6565b9050919050565b600060e0820190506125a16000830184612367565b92915050565b60006020820190506125bc6000830184612404565b92915050565b60006040820190506125d76000830185612404565b6125e4602083018461217c565b9392505050565b6000819050602082019050919050565b600081519050919050565b6000602082019050919050565b600082825260208201905092915050565b600082825260208201905092915050565b60006126408261270f565b915061264b8361270f565b9250827fffffffffffffffffffffffffffffffffffffffffffffffffffffffffffffffff038211156126805761267f612762565b5b828201905092915050565b60006126968261270f565b91506126a18361270f565b9250828210156126b4576126b3612762565b5b828203905092915050565b60006126ca826126ef565b9050919050565b60006126dc826126ef565b9050919050565b60008115159050919050565b600073ffffffffffffffffffffffffffffffffffffffff82169050919050565b6000819050919050565b60006127248261270f565b91507fffffffffffffffffffffffffffffffffffffffffffffffffffffffffffffffff82141561275757612756612762565b5b600182019050919050565b7f4e487b7100000000000000000000000000000000000000000000000000000000600052601160045260246000fd5b7f4e487b7100000000000000000000000000000000000000000000000000000000600052603260045260246000fd5b7f4e487b7100000000000000000000000000000000000000000000000000000000600052604160045260246000fd5b600080fd5b7f436f756e7465723a2064656372656d656e74206f766572666c6f770000000000600082015250565b7f4f776e61626c653a206e6577206f776e657220697320746865207a65726f206160008201527f6464726573730000000000000000000000000000000000000000000000000000602082015250565b7f506c65617365207375626d6974207468652061736b696e67207072696365206960008201527f6e206f7264657220746f20636f6d706c65746520746865207075726368617365602082015250565b7f4f776e61626c653a2063616c6c6572206973206e6f7420746865206f776e6572600082015250565b7f496e76616c696420416464726573730000000000000000000000000000000000600082015250565b7f5265656e7472616e637947756172643a207265656e7472616e742063616c6c00600082015250565b61293f816126bf565b811461294a57600080fd5b50565b6129568161270f565b811461296157600080fd5b5056fea264697066735822122071c0e46172989cf71039912fc02fabf86208fa81300e750ac17d626eca42536864736f6c63430008070033",
  "linkReferences": {},
  "deployedLinkReferences": {}
}